:030000000209EC06
:0C09EC00787FE4F6D8FD7581270208F63C
:1009D20057656C5F436F6D6520546F004645524EFC
:0A09E20048494C4C2054454348009E
:1008F600E4F508F509F50AF50B780E7C00FD7BFF9B
:100906007A0979D2FE7F0C1208D0781A7C007D0015
:100916007BFF7A0979DE7E007F0E1208D07F3812BF
:1009260009F81209AE7F0E1209F81209AE7F0112FC
:1009360009F81209AE7F061209F81209AE7F801275
:1009460009F81209AE7F0C1209F8E4F50CF50D74DE
:100956000E2509F8E6FF6010120A041209AE050911
:10096600E50970EB050880E77F0A7E001209B27F71
:10097600C01209F8E4F50AF50B741A250BF8E6FF20
:10098600600D120A04050BE50B70EE050A80EA12EB
:1009960009AE050DE50D7002050CC394E8E50C944F
:0309A6000340AC5F
:0109A900222B
:0809AA00C2B1D2B27F067E004B
:1009B200E4FDFCD3ED9FEC9E5015E4FBFA0BBB006B
:0F09C200010ABA04F8BBB0F50DBD00010C80E4CA
:0109D1002203
:0C09F8008FA0C2B01209AAC2B20209B25C
:0C0A04008FA0D2B01209AAC2B20209B23F
:10080000E709F608DFFA8046E709F208DFFA803EDA
:1008100088828C83E709F0A3DFFA8032E309F608C7
:10082000DFFA8078E309F208DFFA807088828C832F
:10083000E309F0A3DFFA806489828A83E0A3F608E3
:10084000DFFA805889828A83E0A3F208DFFA804CBD
:1008500080D280FA80C680D4806980F28033801094
:1008600080A680EA809A80A880DA80E280CA8033FD
:1008700089828A83ECFAE493A3C8C582C8CCC58375
:10088000CCF0A3C8C582C8CCC583CCDFE9DEE78045
:100890000D89828A83E493A3F608DFF9ECFAA9F0C4
:1008A000EDFB2289828A83ECFAE0A3C8C582C8CC1A
:1008B000C583CCF0A3C8C582C8CCC583CCDFEADE33
:1008C000E880DB89828A83E493A3F208DFF980CC95
:1008D00088F0EF60010E4E60C388F0ED2402B4048E
:1008E0000050B9F582EB2402B4040050AF23234535
:0608F00082239008507302
:00000001FF
