:030000000209E30F
:0C09E300787FE4F6D8FD75810A02080058
:1008BA00535452454554204C4947485400636F6E7F
:1008CA0074726F6C2073797374656D0073746174DC
:1008DA0075733A202020202020006C696768743ADA
:1008EA0020202020202020004E49474854004F460F
:1008FA0046004F4E2000444159202020202020004D
:0A090A004F46462020202020200048
:08094400C2A2D2A17F057E00D2
:10094C00E4FDFCD3ED9FEC9E5015E4FBFA0BBB00D1
:0F095C00010ABA04F8BBB0F50DBD00010C80E430
:01096B002269
:10096C00A907E954F0F5A0C2A0120944C2A1E9C438
:10097C0054F0F5A0C2A0C2A2D2A112094CC2A1226D
:10098C00A907E954F0F5A0D2A0120944C2A1E9C408
:10099C0054F0F5A0D2A0C2A2D2A112094CC2A1223D
:1009AC007F0212096C7F2812096C7F0E12096C7F72
:0E09BC000612096C7F0112096C7F8002096C23
:0B0914007FC712096C7BFF7A0879FC9A
:10091F008B088A09890AAB08AA09A90A1209CA60B1
:10092F0013050AE50A7002050914F91209CAFF1224
:05093F00098C80E2229A
:10080000C295C2941209AC7F8012096C7BFF7A08F2
:1008100079BA12091F7FC012096C7BFF7A0879C769
:1008200012091F7FF47E0112094C7F0112096C7FAF
:100830008012096C7BFF7A0879D612091F7FC012DB
:10084000096C7BFF7A0879E412091F3090467F8893
:1008500012096C7BFF7A0879F212091F7FC712090F
:100860006C7BFF7A0879F812091F20921112091483
:10087000D2947FE87E0312094CC294120948209357
:10088000CA120914D2957FE87E0312094CC2951250
:10089000094880B77F8712096C7BFF7A09790012BB
:1008A000091F7FC712096C7BFF7A09790A12091F99
:0A08B000C295C29412094802084BD9
:1009CA00BB010689828A83E0225002E722BBFE022B
:0909DA00E32289828A83E493225E
:00000001FF
