:030000000208F6FD
:0C08F600787FE4F6D8FD75810702080049
:0308E200E4FDFF33
:1008E5007589018D8A8F8CD28C308DFDC28CC28D1D
:0108F50022E0
:0408C100AE05AC07CD
:1008C500E4FBFAD2A0AF04AD061208E5C2A01208F7
:0C08D500E50BBB00010ABA03EABBE8E730
:0108E10022F4
:100800007D667FFC1208C1E4FBFA1208E20BBB0014
:10081000010AEB64054A70F27D337FFE1208C1E4E1
:10082000FAFB1208E20BBB00010AEB64054A70F206
:100830007DA37FFF1208C1E4FAFBE4FDFF1208E587
:100840000BBB00010AEB64054A70EF7DD17FFF12FC
:1008500008C1E4FAFBE4FDFF1208E50BBB00010A46
:10086000EB64054A70EF7DDC7FFF1208C1E4FAFB00
:10087000E4FDFF1208E50BBB00010AEB64054A70BA
:10088000EF7DCC7FFF1208C1E4FAFBE4FDFF120804
:10089000E50BBB00010AEB64054A70EF7DE87FFFC2
:1008A0001208C1E4FAFBC3EB9405EA64809480402B
:1008B00003020800E4FDFF1208E50BBB00010A80FB
:0108C000E552
:00000001FF
