:03000000020949A9
:0C094900787FE4F6D8FD7581270208F6DF
:1009290057656C636F6D6520544F2053455249419B
:100939004C20434F4D4D554E49434154494F4E006C
:0C095500759850758920758DFDD28E229A
:080961008F993099FDC2992223
:080969003098FDC298AF9922FD
:1008F60078087C007D007BFF7A0979297E007F20BD
:100906001208D0120955E4FE74082EF8E6FFFD33EE
:1009160095E04D60061209610E80ED120969120913
:030926006180F8F5
:10080000E709F608DFFA8046E709F208DFFA803EDA
:1008100088828C83E709F0A3DFFA8032E309F608C7
:10082000DFFA8078E309F208DFFA807088828C832F
:10083000E309F0A3DFFA806489828A83E0A3F608E3
:10084000DFFA805889828A83E0A3F208DFFA804CBD
:1008500080D280FA80C680D4806980F28033801094
:1008600080A680EA809A80A880DA80E280CA8033FD
:1008700089828A83ECFAE493A3C8C582C8CCC58375
:10088000CCF0A3C8C582C8CCC583CCDFE9DEE78045
:100890000D89828A83E493A3F608DFF9ECFAA9F0C4
:1008A000EDFB2289828A83ECFAE0A3C8C582C8CC1A
:1008B000C583CCF0A3C8C582C8CCC583CCDFEADE33
:1008C000E880DB89828A83E493A3F208DFF980CC95
:1008D00088F0EF60010E4E60C388F0ED2402B4048E
:1008E0000050B9F582EB2402B4040050AF23234535
:0608F00082239008507302
:00000001FF
