:0300000002091DD5
:0C091D00787FE4F6D8FD75810D020849D2
:1008000020414C41524D204445544543544F5220C1
:10081000005553494E47205049522053454E534F9F
:100820005200696E747275646572206465746563E4
:100830007400202020202020202020202020202084
:09084000202020202020202000AF
:100849001208D97BFF7A0879001208B67FC012090D
:10085900017BFF7A0879111208B63090137FC01214
:1008690009017BFF7A0879221208B61208F280EA98
:100879007FC01209017BFF7A0879321208B680DA43
:1008D9007F381209017F0C1209017F061209017F75
:0908E900011209017F80020901DE
:0E0901008FB0C2A0C2A1D2A21208F2C2A222DE
:0E090F008FB0D2A0C2A1D2A21208F2C2A222C0
:0608B6008B0A8A0B890C7D
:1008BC00E4F50DAB0AAA0BA90C850D827583001209
:0C08CC000889FF600712090F050D80E786
:0108D80022FD
:0E08F200E4FFFE0FBF00010EBE4EF8BF20F562
:0109000022D4
:10088900BB010CE58229F582E5833AF583E0225024
:1008990006E92582F8E622BBFE06E92582F8E2226E
:0D08A900E58229F582E5833AF583E4932288
:00000001FF
