:030000000209E210
:0C09E200787FE4F6D8FD758120020A2918
:0C0BF60054494D450044415445003A006C
:020C0E00C10023
:10080000120BEA120BB07FD0120A6EE4FF120A6ECE
:100810007F40120A6E7F28120A6E7F14120A6E7FC2
:1008200006120A6E7F09120A6E7F07120A6E7F2176
:10083000120A6E120BCE120BEA120BB07FD0120A04
:100840006EE4FF120A6E120BB07FD1120A6E120A0A
:10085000AE850C0953097F120BCE120BB07FD0125C
:100860000A6E7F01120A6E120BB07FD1120A6E124D
:100870000AAE850C0B530B7F120BCE120BB07FD040
:10088000120A6E7F02120A6E120BB07FD1120A6E2C
:10089000120AAE850C0E530E3F120BCE120BB07F18
:1008A000D0120A6E7F03120A6E120BB07FD1120AA9
:1008B0006E120AAE850C0A530A0F120BCE120BB041
:1008C0007FD0120A6E7F04120A6E120BB07FD11213
:1008D0000A6E120AAE850C0853083F120BCE120B9B
:1008E000B07FD0120A6E7F05120A6E120BB07FD154
:1008F000120A6E120AAE850C0D530D0F120BCE129A
:100900000BB07FD0120A6E7F06120A6E120BB07FF8
:10091000D1120A6E120AAE850C0F530F3F120BCE86
:09092000120B0E1209290208361F
:100B0E00AF0E120AE6AF0B120AE6AF09120AE61290
:100B1E000C02AF08120AE6AF0D120AE6AF0F120A68
:040B2E00E6020C02CD
:100AE600EF540FFEEF54F0C4540FFF430630430794
:100AF600308F993099FDC2998E993099FDC29975BA
:070B0600993A3099FDC299F4
:010B0D0022C5
:10092900120B557BFF7A0B79F6120B327FC0120B33
:10093900DC7BFF7A0B79FB120B32E50E540FF510B5
:10094900E50E54F0C4540FF5117F86120BDCE51146
:100959004430FF120B91E5104430FF120B917F00D8
:10096900120B91E50B540FF510E50B120B87E510EF
:100979004430FF120B917F00120B91E509540FF5DA
:1009890010E509120B87E5104430FF120B917FC661
:10099900120BDCE508540FF510E508120B87E5107A
:1009A9004430FF120B917F00120B91E50D540FF5A6
:1009B90010E50D120B87E5104430FF120B917F00F3
:1009C900120B91E50F540FF510E50F120B87E51087
:0909D9004430FF120B91020B9F48
:100B9F00E4FFFE0FBF00010EE4B507F7EEB47DF3DF
:010BAF002223
:100B55007F38120BDC7F01120BDC7F10120BDC7F60
:090B65000C120BDC7F80020BDC9A
:090C020075990D3099FDC299228B
:100A6E007510808F12E4F511C3E51194087480940B
:100A7E00805019E512551024FF92A1D2A0120C0B32
:100A8E00C2A0E51225E0F512051180DCA2A19200AC
:0F0A9E00D2A0120C0BC2A0300005120BCE80FEAE
:010AAD002226
:0E0BCE00D2A0C2A1120C0BD2A1C2A0020C0B2D
:030C0B00000022C4
:100AAE00C201E4FFEFD39407748094805027D2A044
:100ABE00120C0BA2A19201C2A0300103430C01EF54
:100ACE00D39406748094805006E50C25E0F50C1244
:070ADE000C0B0F80CFAF0CE1
:010AE50022EE
:0F0BB000D2A0D2A1120C0BC2A1120C0BC2A02218
:0C0BEA00759850758920758DFDD28E2203
:100B32008B128A138914AB12AA13A914120B6EFF1B
:100B42006010120B9174012514F514E43513F5139A
:030B520080E4221A
:0A0B870054F0C4540FF5114430FF80
:0E0B91008F90D2A2C2A3D2A4120BBFC2A42284
:0E0BDC008F90C2A2C2A3D2A4120BBFC2A42249
:0E0BBF00E4FFFE0FBF00010EBE07F8BFD0F529
:010BCD002205
:1009EE00020800E493A3F8E493A34003F68001F217
:1009FE0008DFF48029E493A3F85407240CC8C3330A
:100A0E00C4540F4420C8834004F456800146F6DFD8
:100A1E00E4800B0102040810204080900C0EE47E4E
:100A2E00019360BCA3FF543F30E509541FFEE493CD
:100A3E00A360010ECF54C025E060A840B8E493A394
:100A4E00FAE493A3F8E493A3C8C582C8CAC583CABF
:100A5E00F0A3C8C582C8CAC583CADFE9DEE780BE77
:010C100000E3
:100B6E00BB010689828A83E0225002E722BBFE0285
:090B7E00E32289828A83E49322B8
:00000001FF
