:03000000020A9F52
:0C0A9F00787FE4F6D8FD7581190208F696
:100A8F004B45595041442057495448204C4344004A
:0E0A22007E00120A307F01120A6B7F0A7E00EE
:100A3000E4FDFCC3ED9FEC9E5015E4FBFA0BBB00FC
:0F0A4000010ABA04F8BBFBF50DBD00010C80E400
:010A4F002284
:100A6B008FA0C2B0C2B1D2B27F017E00120A30C2D7
:020A7B00B222A5
:100A7D008FA0D2B0C2B1D2B27F017E00120A30C2B5
:020A8D00B22293
:100A50007F38120A297F0F120A6B7F0A120A227F3F
:0B0A600081120A6B7F0A7E00020A3040
:10095E00D294D295D296D297C290C291C292C2939D
:10096E002097057F2B120A7D2096057F2D120A7D7A
:10097E002095057F2A120A7D2094057F2F120A7D6D
:01098E002246
:10098F00D294D295D296D297C290C291C292C2936C
:10099F002097057F3D120A7D2096057F33120A7D31
:1009AF002095057F36120A7D2094057F39120A7D26
:0109BF002215
:1009C000D294D295D296D297C290C291C292C2933B
:1009D0002097057F30120A7D2096057F32120A7D0E
:1009E0002095057F35120A7D2094057F38120A7DF7
:0109F00022E4
:1009F100D294D295D296D297C290C291C292C2930A
:100A01002097057F43120A7D2096057F31120A7DCA
:100A11002095057F34120A7D2094057F37120A7DC7
:010A210022B2
:1008F600780A7C007D007BFF7A0A798F7E007F1064
:100906001208D0120A50740A2509F8E6FF600D1283
:100916000A7D0509E50970EE050880EA7F64120A7A
:10092600227F1E7E00120A30D290D291D292D293AA
:10093600C294C295C296C29720930512095E80E1C1
:1009460020920512098F80D92091051209C080D105
:080956002090CE1209F180C9C6
:10080000E709F608DFFA8046E709F208DFFA803EDA
:1008100088828C83E709F0A3DFFA8032E309F608C7
:10082000DFFA8078E309F208DFFA807088828C832F
:10083000E309F0A3DFFA806489828A83E0A3F608E3
:10084000DFFA805889828A83E0A3F208DFFA804CBD
:1008500080D280FA80C680D4806980F28033801094
:1008600080A680EA809A80A880DA80E280CA8033FD
:1008700089828A83ECFAE493A3C8C582C8CCC58375
:10088000CCF0A3C8C582C8CCC583CCDFE9DEE78045
:100890000D89828A83E493A3F608DFF9ECFAA9F0C4
:1008A000EDFB2289828A83ECFAE0A3C8C582C8CC1A
:1008B000C583CCF0A3C8C582C8CCC583CCDFEADE33
:1008C000E880DB89828A83E493A3F208DFF980CC95
:1008D00088F0EF60010E4E60C388F0ED2402B4048E
:1008E0000050B9F582EB2402B4040050AF23234535
:0608F00082239008507302
:00000001FF
