:0300000002099959
:0C099900787FE4F6D8FD75810E0208603E
:1009120041444320696E697400646F6E650041440E
:10092200432076616C756500203D20006C63642075
:05093200696E6974000C
:100860001208B2D295C294C296C2937F8012097DBB
:100870007BFF7A0979121208EF12096E7FC51209FF
:100880007D1208E912096ED290D291D292120950CB
:10089000D294120950D293120950C294C293309547
:1008A000FDD29612095085800EC296AF0E12080036
:0208B00080D5F1
:10080000EF75F00A84FEEF75F00A8485F008EE7546
:10081000F00A8485F009EE75F00A84F50A74302533
:1008200008F50874302509F5097430250AF50A7FA2
:100830008012097D7BFF7A0979201208EF12096E78
:100840007FC512097D7BFF7A09792A1208EF120908
:100850006EAF0A12098BAF0912098BAF0802098B20
:1008B2007F3812097D12095F7F0E12097D12095FCE
:1008C2007F0112097D12095F12095F7F8012097D83
:1008D2007BFF7A09792E1208EF12096E7FC5120981
:0708E2007D1208E902096E16
:0E097D008FA0C2B0C2B1D2B212096EC2B222B5
:0608E9007BFF7A09791B78
:1008EF008B0B8A0C890DAB0BAA0CA90D120937FFC4
:1008FF00601012098B7401250DF50DE4350CF50C04
:03090F0080E4225F
:0E098B008FA0D2B0C2B1D2B212096EC2B22297
:0E095000E4FFFE0FBF00010EBE03F8BFE8F586
:01095E002276
:0E095F00E4FFFE0FBF00010EEF64644E70F562
:01096D002267
:0E096E00E4FFFE0FBF00010EBE27F8BF10F51C
:01097C002258
:10093700BB010689828A83E0225002E722BBFE02BE
:09094700E32289828A83E49322F1
:00000001FF
