:03000000020938BA
:0C093800787FE4F6D8FD75810A02080003
:100860004155544F4D4154494320524F4F4D004C38
:100870004947485420434F4E54524F4C2049520050
:1008800053454E534F52204445544543544544002C
:100890004C49474854204F4E004E4F2053454E532D
:1008A0004F52204445544543544544004C49474821
:0608B00054204F464600F3
:100800001208DB7BFF7A0879601208B67FC01209F4
:100810001C7BFF7A08796F1208B63090237F011293
:10082000091C7BFF7A0879801208B67FC012091C68
:100830007BFF7A0879901208B6C2A33090DC80FB67
:100840007F0112091C7BFF7A0879991208B67FC0D4
:1008500012091C7BFF7A0879AC1208B6D2A380BAC1
:1008DB007F3812091C7F0E12091C7F0612091C7F20
:0908EB000112091C7F8002091CA6
:0E091C008FB0C2A0C2A1D2A212090DC2A222A7
:0E092A008FB0D2A0C2A1D2A212090DC2A22289
:1008B6008B088A09890AAB08AA09A90A1208F460F2
:1008C60013050AE50A7002050914F91208F4FF1265
:0508D600092A80E22266
:0E090D00E4FFFE0FBF00010EBE4EF8BF20F546
:01091B0022B9
:1008F400BB010689828A83E0225002E722BBFE0202
:09090400E32289828A83E4932234
:00000001FF
