:030000000208EB08
:0C08EB00787FE4F6D8FD75810B02080050
:10088600204649524520414C455254200053595365
:1008960054454D0046495245204F43435552454421
:0108A6000051
:10080000C291C2901208A77BFF7A0879861208630A
:100810007FC41208CF7BFF7A08799312086312080D
:10082000C03090E07F011208CF7BFF7A08799A12DE
:060830000863D29180CEA6
:1008A7007F381208CF7F011208CF7F101208CF7F41
:0908B7000C1208CF7F800208CF6B
:0E08CF008FA0C2B0C2B1D2B21208C0C2B22213
:0E08DD008FA0D2B0C2B1D2B21208C0C2B222F5
:060863008B088A09890AD6
:10086900E4F50BAB08AA09A90A850B827583001266
:0C0879000836FF60071208DD050B80E761
:010885002250
:0E08C000E4FFFE0FBF00010EBE27F8BF10F5CB
:0108CE002207
:10083600BB010CE58229F582E5833AF583E0225077
:1008460006E92582F8E622BBFE06E92582F8E222C1
:0D085600E58229F582E5833AF583E49322DB
:00000001FF
