:03000000020B5B95
:0C0B5B00787FE4F6D8FD758120020A22A4
:0E0B4D0053656E74203A0052656164203A00D0
:100A2200120B0A7BFF7A0B794D120A8F7FC0120BD1
:100A3200677BFF7A0B7954120A8F20B703120800E2
:100A4200209207C2B61208CCD2B6209307C2B612C1
:100A52000923D2B62094E3C2B612097AD2B680DA5A
:0B0B7F00D290D2910000C290C29122DF
:050B2E008F10120B46C0
:0B0B3300C290D2910000D290C291222B
:080B3E00120B7F7FA0120ABA1E
:070B4600D2910000C29122D0
:100ABA00E4FBFAEFC4131313540124FF9290EF25B9
:100ACA00E0FFD2910000C2910BBB00010AEB64085F
:090ADA004A70E0A2909200C29063
:010AE30022F0
:1009D100120ABA120B46120B7F7FA1120ABA120B2E
:1009E100461209FA8F0D120B461209FA8F0E120BDD
:0909F100461209FA8F0F120B46A1
:1009FA00D290E4F508FFFEE50825E0F508D291005B
:100A0A00003090020508C2910FBF00010EEF640882
:070A1A004E70E4C290AF082A
:010A210022B2
:10080000120B3EE4FF120ABA120B467F46120ABAD6
:10081000120B467F45120ABA120B467F52120ABAD1
:10082000120B467F4E120ABA120B467F48120ABAC2
:10083000120B467F49120ABA120B467F4C120ABAB3
:10084000120B467F4C120ABA120B467F53120ABA99
:10085000120B46120B3320006EC2B57F647E00126D
:100860000AEA7F86120B677F46120B737F87120B93
:10087000677F45120B737F88120B677F52120B73D1
:100880007F89120B677F4E120B737F8A120B677F73
:1008900048120B737F8B120B677F49120B737F8C8F
:1008A000120B677F4C120B737F8D120B677F4C12FC
:1008B0000B737F8E120B677F53120B73D2B57F645D
:0C08C0007E00120AEA8002C2B6020B465B
:1008CC00120B3EE4FF1209D1120B2EE50DF460461B
:1008DC00C2B67F647E00120AEA850D097FC6120B30
:1008EC0067AF09120B73850E097FC7120B67AF092F
:1008FC00120B73850F097FC8120B67AF09120B73AC
:10090C008510097FC9120B67AF09120B73D2B67F22
:07091C00647E00120AEA22CA
:10092300120B3E7F041209D1120B2EE50DF4604623
:10093300C2B67F647E00120AEA850D097FC6120BD8
:1009430067AF09120B73850E097FC7120B67AF09D7
:10095300120B73850F097FC8120B67AF09120B7354
:100963008510097FC9120B67AF09120B73D2B67FCB
:07097300647E00120AEA2273
:10097A00120B3E7F021209D1120B2EE50DF46046CE
:10098A00C2B67F647E00120AEA850D097FC6120B81
:10099A0067AF09120B73850E097FC7120B67AF0980
:1009AA00120B73850F097FC8120B67AF09120B73FD
:1009BA008510097FC9120B67AF09120B73D2B67F74
:0709CA00647E00120AEA221C
:100B0A007F38120B677F057E00120AEA7F0F120BED
:100B1A00677F057E00120AEA7F80120B677F057ED7
:040B2A0000020AEAD1
:0C0B67008FA0D2B4C2B2120AE4C2B422C1
:0C0B73008FA0D2B4D2B2120AE4C2B422A5
:060A8F008B118A1289138D
:100A9500E4F514F515AB11AA12A913851582851471
:100AA50083120A62FF600D120B730515E51570E5DB
:040AB500051480E1C3
:010AB900221A
:060AE400C2B37F017E0099
:100AEA00E4FDFCC3ED9FEC9E5015E4FBFA0BBB0042
:0F0AFA00010ABA04F8BBFBF50DBD00010C80E446
:010B090022C9
:100A6200BB010CE58229F582E5833AF583E0225049
:100A720006E92582F8E622BBFE06E92582F8E22293
:0D0A8200E58229F582E5833AF583E49322AD
:00000001FF
