:03000000020A0EE3
:0C0A0E00787FE4F6D8FD75810E02080028
:1009BF00566F6C746D657465722050726A00444393
:0309CF003A2000CB
:1009D200D2A7C2B0D2B130A706C2B2D2B280F72239
:0E09F2001209D28FA0C2B0C2B1D2B2C2B222DC
:0E0A00001209D28FA0D2B0C2B1D2B2C2B222BD
:10097C008B0C8A0D890EAB0CAA0DA90E120898606F
:10098C0013050EE50E7002050D14F9120898FF12EE
:05099C000A0080E222C8
:1009A1007F021209F27F381209F27F011209F27FE8
:0E09B1000C1209F27F061209F27F800209F291
:10091800AE07E4FD749C2EFE3395E0FAC364809420
:100928008040010DC3EA6480948050E8EDFB339564
:10093800E0FAD3EB9400EA648094804007ED243019
:10094800FF120A00E4FD74642EFE74F62EFEFB33DB
:1009580095E0FAC36480948040010DC3EA648094F2
:100968008050E7ED2430FF120A00EE240AFD2430FF
:04097800FF020A0070
:0C0A1A00C2B5C2B6D2B6D2B520B4FD22DF
:1009E200C2B5C2B7AF907508008F09D2B7D2B5228F
:100800001209A17BFF7A0979BF12097CE4F50AF588
:100810000BFEEEFD3395E0FCC3ED940AEC6480948E
:10082000805015120A1A1209E2E509250BF50BE5AD
:1008300008350AF50A0E80DAAE0AAF0B7C007D0A95
:100840001208C38E0A8F0B7FC01209F27BFF7A0950
:1008500079CD12097CAE0AAF0B7C007D3B1208B14A
:100860008E088F097C037DE81208C31209187F2EB9
:10087000120A00AE08AF097C037DE81208C38C0899
:100880008D09AE08AF097C007D0A1208C312091851
:080890007F56120A0002080C59
:10089800BB010689828A83E0225002E722BBFE025E
:0908A800E32289828A83E4932291
:1008B100EF8DF0A4A8F0CF8CF0A428CE8DF0A42E5B
:0208C100FE2215
:1008C300BC000BBE0029EF8DF084FFADF022E4CC19
:1008D300F875F008EF2FFFEE33FEEC33FCEE9DECE2
:1008E300984005FCEE9DFE0FD5F0E9E4CEFD22ED28
:1008F300F8F5F0EE8420D21CFEADF075F008EF2F72
:10090300FFED33FD4007985006D5F0F222C398FD62
:050913000FD5F0EA22FF
:00000001FF
