:03000000020800F3
:0C080000787FE4F6D8FD758109020847F6
:0608DB000108EB0109FF1A
:1008C600D290308DFDC28D85088C85098AC2903004
:0508D6008DFDC28D2222
:10088C00E4F5907589017BFF7AFF7508EB7509FF1C
:10089C00E4FEFFD28CE4FCFD8B8C8A8A1208C60D18
:1008AC00BD00010CED64334C70EE1B05080FBF004E
:0A08BC00010EEF64154E70DD80CCD4
:10080C0002088CE493A3F8E493A34003F68001F26E
:10081C0008DFF48029E493A3F85407240CC8C333ED
:10082C00C4540F4420C8834004F456800146F6DFBC
:10083C00E4800B01020408102040809008DBE47E69
:10084C00019360BCA3FF543F30E509541FFEE493B1
:10085C00A360010ECF54C025E060A840B8E493A378
:10086C00FAE493A3F8E493A3C8C582C8CAC583CAA3
:10087C00F0A3C8C582C8CAC583CADFE9DEE780BE5B
:0108E1000016
:00000001FF
