:030000000209DC16
:0C09DC00787FE4F6D8FD7581070209E879
:07095C001209B87F0A7E00BA
:10096300E4FDFCC3ED9FEC9E5015E4FBFA0BBB00CA
:0F097300010ABA04F8BBFBF50DBD00010C80E4CE
:010982002252
:1009CA008FA0D2B2C2B0C2B17F017E00120963C247
:0209DA00B22247
:1009A7007F0A1209B8E4FF1209B87F041209B8E4F4
:0109B700FF40
:1009B8008FA0D2B2D2B0C2B17F017E00120963C249
:0209C800B22259
:100983007F381209CA7F027E001209637F0F1209A2
:10099300CA7F027E001209637F821209CA7F027E28
:0409A30000020963E2
:100800007F401209CAE4FF1209B87F0A1209B87FB3
:10081000151209B87F111209B87F0A1209AEE4FF58
:100820001209B87FC01209CAE4FF12095C7F48129E
:1008300009CAE4FF1209B3E4FF1209B87F0A1209DA
:10084000B37F041209B87F111209B87F0E1209B8DC
:100850007F801209CA7F0112095C7F501209CAE425
:10086000FF1209B31209A77F0E1209B87F111209EE
:10087000B87F821209CA7F0212095C7F581209CA26
:100880007F011209B87F031209B87F051209B87FEA
:10089000091209B87F091209B87F0B1209B87F1B2A
:1008A0001209B87F181209B87F841209CA7F03128F
:1008B000095C7F601209CAE4FF1209B87F0A1209B5
:1008C000B37F1F1209B87F111209B87F0E1209B346
:1008D000E4FF1209B87F861209CA7F0412095C7FFF
:1008E000681209CA1209A77F0E1209B87F111209EE
:1008F000B87F111209B87F0E1209B87FC21209CA57
:100900007F0512095C7F701209CAE4FF1209B87FE3
:100910000A1209B8E4FF1209A97F1F1209B37FC4A4
:100920001209CA7F0612095C7F781209CAE4FF1215
:1009300009B87F111209B87F0A1209B87F1112098C
:10094000AE7F0E1209B87F111209B87FC61209CA0C
:0C0950007F071209B87F0A7E00020963CD
:0609E80012098302080061
:00000001FF
