:03000000020916DC
:0C091600787FE4F6D8FD75810B02080024
:10083D0057454C434F4D4520544F00496E746572DA
:10084D007275707420436F756E74657200434F55E9
:09085D004E54204953203D2000B7
:100800001208C87BFF7A08793D1208667FC012087B
:10081000FA1208AB7BFF7A0879481208661208AB17
:100820002090FD7F011208FA7BFF7A08795A12089E
:0D083000661208AB0508AF0812088980E3C6
:1008C8007F381208FA7F011208FA7F101208FA7F9F
:0908D8000C1208FA7F800208FAF4
:0E08FA008FA0C2B0C2B1D2B21208ABC2B222FD
:0E0908008FA0D2B0C2B1D2B21208ABC2B222DE
:100866008B098A0A890BAB09AA0AA90B1208E1FFB0
:1008760060101209087401250BF50BE4350AF50A18
:0308860080E422E9
:02088900AE07B8
:10088B00EE75F00A84FFEE75F00A8485F00974307A
:10089B002FFF74302509F509120908AF0902090861
:1008AB00E4FFFE0FBF00010EBE0BF8BFB8F5E4FF6F
:0C08BB00FE0FBF00010EEF64644E70F5EC
:0108C700220E
:1008E100BB010689828A83E0225002E722BBFE0215
:0908F100E32289828A83E4932248
:00000001FF
